{
  "_format": "hh-sol-artifact-1",
  "contractName": "RwaVault",
  "sourceName": "contracts/Vault.sol",
  "abi": [
    {
      "inputs": [
        {
          "internalType": "address",
          "name": "_usdc",
          "type": "address"
        },
        {
          "internalType": "address",
          "name": "_feeRecipient",
          "type": "address"
        },
        {
          "internalType": "contract TOKENISSUEINTERFACE",
          "name": "SNRtoken",
          "type": "address"
        },
        {
          "internalType": "contract TOKENISSUEINTERFACE",
          "name": "JNRtoken",
          "type": "address"
        }
      ],
      "stateMutability": "nonpayable",
      "type": "constructor"
    },
    {
      "inputs": [
        {
          "internalType": "address",
          "name": "token",
          "type": "address"
        }
      ],
      "name": "SafeERC20FailedOperation",
      "type": "error"
    },
    {
      "inputs": [],
      "name": "BASIS_POINTS",
      "outputs": [
        {
          "internalType": "uint256",
          "name": "",
          "type": "uint256"
        }
      ],
      "stateMutability": "view",
      "type": "function"
    },
    {
      "inputs": [],
      "name": "balance",
      "outputs": [
        {
          "internalType": "uint256",
          "name": "",
          "type": "uint256"
        }
      ],
      "stateMutability": "view",
      "type": "function"
    },
    {
      "inputs": [
        {
          "internalType": "uint256",
          "name": "amount",
          "type": "uint256"
        }
      ],
      "name": "deposit",
      "outputs": [],
      "stateMutability": "nonpayable",
      "type": "function"
    },
    {
      "inputs": [],
      "name": "depositFeeBP",
      "outputs": [
        {
          "internalType": "uint256",
          "name": "",
          "type": "uint256"
        }
      ],
      "stateMutability": "view",
      "type": "function"
    },
    {
      "inputs": [],
      "name": "feeRecipient",
      "outputs": [
        {
          "internalType": "address",
          "name": "",
          "type": "address"
        }
      ],
      "stateMutability": "view",
      "type": "function"
    },
    {
      "inputs": [
        {
          "internalType": "address",
          "name": "user",
          "type": "address"
        }
      ],
      "name": "getUserInvestment",
      "outputs": [
        {
          "components": [
            {
              "components": [
                {
                  "internalType": "uint256",
                  "name": "amounts",
                  "type": "uint256"
                },
                {
                  "internalType": "uint256",
                  "name": "SNRAlloc",
                  "type": "uint256"
                },
                {
                  "internalType": "uint256",
                  "name": "JNRAlloc",
                  "type": "uint256"
                },
                {
                  "internalType": "uint256",
                  "name": "timestamp",
                  "type": "uint256"
                },
                {
                  "internalType": "bool",
                  "name": "isActive",
                  "type": "bool"
                }
              ],
              "internalType": "struct PoolInfo[]",
              "name": "pool",
              "type": "tuple[]"
            }
          ],
          "internalType": "struct depositInfo",
          "name": "",
          "type": "tuple"
        }
      ],
      "stateMutability": "view",
      "type": "function"
    },
    {
      "inputs": [],
      "name": "juniorFeeBP",
      "outputs": [
        {
          "internalType": "uint256",
          "name": "",
          "type": "uint256"
        }
      ],
      "stateMutability": "view",
      "type": "function"
    },
    {
      "inputs": [],
      "name": "juniorToken",
      "outputs": [
        {
          "internalType": "contract TOKENISSUEINTERFACE",
          "name": "",
          "type": "address"
        }
      ],
      "stateMutability": "view",
      "type": "function"
    },
    {
      "inputs": [
        {
          "components": [
            {
              "internalType": "uint256",
              "name": "index",
              "type": "uint256"
            },
            {
              "internalType": "uint256",
              "name": "seniorAmount",
              "type": "uint256"
            },
            {
              "internalType": "uint256",
              "name": "juniorAmount",
              "type": "uint256"
            }
          ],
          "internalType": "struct redeemParams",
          "name": "params",
          "type": "tuple"
        }
      ],
      "name": "redeem",
      "outputs": [
        {
          "internalType": "bool",
          "name": "",
          "type": "bool"
        }
      ],
      "stateMutability": "nonpayable",
      "type": "function"
    },
    {
      "inputs": [],
      "name": "seniorFeeBP",
      "outputs": [
        {
          "internalType": "uint256",
          "name": "",
          "type": "uint256"
        }
      ],
      "stateMutability": "view",
      "type": "function"
    },
    {
      "inputs": [],
      "name": "seniorToken",
      "outputs": [
        {
          "internalType": "contract TOKENISSUEINTERFACE",
          "name": "",
          "type": "address"
        }
      ],
      "stateMutability": "view",
      "type": "function"
    },
    {
      "inputs": [
        {
          "internalType": "address",
          "name": "_feeRecipient",
          "type": "address"
        }
      ],
      "name": "setFeeRecipient",
      "outputs": [],
      "stateMutability": "nonpayable",
      "type": "function"
    },
    {
      "inputs": [
        {
          "internalType": "uint256",
          "name": "_depositFeeBP",
          "type": "uint256"
        },
        {
          "internalType": "uint256",
          "name": "_seniorFeeBP",
          "type": "uint256"
        },
        {
          "internalType": "uint256",
          "name": "_juniorFeeBP",
          "type": "uint256"
        }
      ],
      "name": "setFees",
      "outputs": [],
      "stateMutability": "nonpayable",
      "type": "function"
    },
    {
      "inputs": [],
      "name": "totalDeposits",
      "outputs": [
        {
          "internalType": "uint256",
          "name": "",
          "type": "uint256"
        }
      ],
      "stateMutability": "view",
      "type": "function"
    },
    {
      "inputs": [],
      "name": "usdc",
      "outputs": [
        {
          "internalType": "contract IERC20",
          "name": "",
          "type": "address"
        }
      ],
      "stateMutability": "view",
      "type": "function"
    }
  ],
  "bytecode": "0x608060405260c8600555606460065560c860075534801561001f57600080fd5b50604051610e5c380380610e5c83398101604081905261003e916100a7565b600080546001600160a01b03199081166001600160a01b0396871617909155600180548216938616939093179092556002805483169185169190911790556008805490911691909216179055610106565b6001600160a01b03811681146100a457600080fd5b50565b600080600080608085870312156100bd57600080fd5b84516100c88161008f565b60208601519094506100d98161008f565b60408601519093506100ea8161008f565b60608601519092506100fb8161008f565b939692955090935050565b610d47806101156000396000f3fe608060405234801561001057600080fd5b50600436106100f55760003560e01c8063b0e9787211610097578063cec10c1111610066578063cec10c11146101e6578063e1f1c4a714610202578063e216ad1c1461020b578063e74b981b1461021e57600080fd5b8063b0e97872146101ad578063b69ef8a8146101c0578063b6b55f25146101c8578063c1e2e710146101dd57600080fd5b806346904840116100d3578063469048401461017157806354747a70146101845780637d8820971461019b5780638fb425d9146101a457600080fd5b806332f65881146100fa57806338971927146101235780633e413bee14610146575b600080fd5b61010d610108366004610b54565b61024e565b60405161011a9190610b84565b60405180910390f35b610136610131366004610c07565b610304565b604051901515815260200161011a565b600054610159906001600160a01b031681565b6040516001600160a01b03909116815260200161011a565b600854610159906001600160a01b031681565b61018d60055481565b60405190815260200161011a565b61018d60035481565b61018d60075481565b600254610159906001600160a01b031681565b61018d6107c0565b6101db6101d6366004610c22565b610832565b005b61018d60065481565b6101db6101f4366004610c3b565b600592909255600655600755565b61018d61271081565b600154610159906001600160a01b031681565b6101db61022c366004610b54565b600880546001600160a01b0319166001600160a01b0392909216919091179055565b6040805160208082018352606082526001600160a01b038416600090815260048252838120845181548085028201870187529381018481529495909491938593859285015b828210156102f65760008481526020908190206040805160a081018252600586029092018054835260018082015484860152600282015492840192909252600381015460608401526004015460ff16151560808301529083529092019101610293565b505050915250909392505050565b336000908152600460205260408120548235106103685760405162461bcd60e51b815260206004820152601960248201527f7661756c743a20696e76616c696420706f6f6c20696e6465780000000000000060448201526064015b60405180910390fd5b3360009081526004602052604090208054833590811061038a5761038a610c67565b600091825260209091206004600590920201015460ff166103ed5760405162461bcd60e51b815260206004820152601760248201527f7661756c743a20706f6f6c20697320696e616374697665000000000000000000604482015260640161035f565b600082602001351180610404575060008260400135115b61043e5760405162461bcd60e51b815260206004820152600b60248201526a5a65726f2072656465656d60a81b604482015260640161035f565b600080546040516370a0823160e01b81523060048201526001600160a01b03909116906370a0823190602401602060405180830381865afa158015610487573d6000803e3d6000fd5b505050506040513d601f19601f820116820180604052508101906104ab9190610c7d565b9050600064e8d4a510006104c760408601356020870135610cac565b6104d19190610cc5565b90506000612710600554836104e69190610ce7565b6104f09190610cc5565b90506104fc8183610cfe565b33600090815260046020526040902080549193508391873590811061052357610523610c67565b90600052602060002090600502016000015410156105775760405162461bcd60e51b81526020600482015260116024820152704e6f7420456e6f7567682073686172657360781b604482015260640161035f565b6105818183610cac565b8310156105c25760405162461bcd60e51b815260206004820152600f60248201526e4e6f7420656e6f756768205553444360881b604482015260640161035f565b60208501351561062e57600154604051630852cd8d60e31b8152602087013560048201526001600160a01b03909116906342966c6890602401600060405180830381600087803b15801561061557600080fd5b505af1158015610629573d6000803e3d6000fd5b505050505b60408501351561069a5760025460408051630852cd8d60e31b81529087013560048201526001600160a01b03909116906342966c6890602401600060405180830381600087803b15801561068157600080fd5b505af1158015610695573d6000803e3d6000fd5b505050505b80156106bd576008546000546106bd916001600160a01b03918216911683610a40565b6000546106d4906001600160a01b03163384610a40565b81600360008282546106e69190610cfe565b90915550503360009081526004602052604090208054839190873590811061071057610710610c67565b906000526020600020906005020160000160008282546107309190610cfe565b90915550503360009081526004602052604090208054863590811061075757610757610c67565b9060005260206000209060050201600001546000036107b5573360009081526004602052604081208054873590811061079257610792610c67565b60009182526020909120600590910201600401805460ff19169115159190911790555b506001949350505050565b600080546040516370a0823160e01b81523060048201526001600160a01b03909116906370a0823190602401602060405180830381865afa158015610809573d6000803e3d6000fd5b505050506040513d601f19601f8201168201806040525081019061082d9190610c7d565b905090565b600081116108715760405162461bcd60e51b815260206004820152600c60248201526b16995c9bc819195c1bdcda5d60a21b604482015260640161035f565b600054610889906001600160a01b0316333084610aa4565b60006064610898836046610ce7565b6108a29190610cc5565b905060006108b08284610cfe565b905060006108c38364e8d4a51000610ce7565b905060006108d68364e8d4a51000610ce7565b6001546040516340c10f1960e01b8152336004820152602481018590529192506001600160a01b0316906340c10f1990604401600060405180830381600087803b15801561092357600080fd5b505af1158015610937573d6000803e3d6000fd5b50506002546040516340c10f1960e01b8152336004820152602481018590526001600160a01b0390911692506340c10f199150604401600060405180830381600087803b15801561098757600080fd5b505af115801561099b573d6000803e3d6000fd5b50506040805160a0810182528881526020808201878152828401878152426060850190815260016080860181815233600090815260048088529881208054808501825590825296812088516005909802019687559451918601919091559151600285015551600380850191909155905192909401805460ff191692151592909217909155825491945089935090610a33908490610cac565b9091555050505050505050565b6040516001600160a01b03838116602483015260448201839052610a9f91859182169063a9059cbb906064015b604051602081830303815290604052915060e01b6020820180516001600160e01b038381831617835250505050610ae3565b505050565b6040516001600160a01b038481166024830152838116604483015260648201839052610add9186918216906323b872dd90608401610a6d565b50505050565b600080602060008451602086016000885af180610b06576040513d6000823e3d81fd5b50506000513d91508115610b1e578060011415610b2b565b6001600160a01b0384163b155b15610add57604051635274afe760e01b81526001600160a01b038516600482015260240161035f565b600060208284031215610b6657600080fd5b81356001600160a01b0381168114610b7d57600080fd5b9392505050565b602081526000604082018351602080850152818151808452606086019150602083019350600092505b80831015610bfd578351805183526020810151602084015260408101516040840152606081015160608401526080810151151560808401525060a082019150602084019350600183019250610bad565b5095945050505050565b60006060828403128015610c1a57600080fd5b509092915050565b600060208284031215610c3457600080fd5b5035919050565b600080600060608486031215610c5057600080fd5b505081359360208301359350604090920135919050565b634e487b7160e01b600052603260045260246000fd5b600060208284031215610c8f57600080fd5b5051919050565b634e487b7160e01b600052601160045260246000fd5b80820180821115610cbf57610cbf610c96565b92915050565b600082610ce257634e487b7160e01b600052601260045260246000fd5b500490565b8082028115828204841417610cbf57610cbf610c96565b81810381811115610cbf57610cbf610c9656fea264697066735822122050d01c749978d82fcfaa066372d91c31a88bd75de45d14ba4c950dfd5bbae30e64736f6c634300081d0033",
  "linkReferences": {},
  "deployedLinkReferences": {}
}