{
  "_format": "hh-sol-artifact-1",
  "contractName": "JNR",
  "sourceName": "contracts/JNRToken.sol",
  "abi": [
    {
      "inputs": [
        {
          "internalType": "address",
          "name": "adminAddress",
          "type": "address"
        }
      ],
      "stateMutability": "nonpayable",
      "type": "constructor"
    },
    {
      "inputs": [],
      "name": "AccessControlBadConfirmation",
      "type": "error"
    },
    {
      "inputs": [
        {
          "internalType": "address",
          "name": "account",
          "type": "address"
        },
        {
          "internalType": "bytes32",
          "name": "neededRole",
          "type": "bytes32"
        }
      ],
      "name": "AccessControlUnauthorizedAccount",
      "type": "error"
    },
    {
      "inputs": [
        {
          "internalType": "address",
          "name": "spender",
          "type": "address"
        },
        {
          "internalType": "uint256",
          "name": "allowance",
          "type": "uint256"
        },
        {
          "internalType": "uint256",
          "name": "needed",
          "type": "uint256"
        }
      ],
      "name": "ERC20InsufficientAllowance",
      "type": "error"
    },
    {
      "inputs": [
        {
          "internalType": "address",
          "name": "sender",
          "type": "address"
        },
        {
          "internalType": "uint256",
          "name": "balance",
          "type": "uint256"
        },
        {
          "internalType": "uint256",
          "name": "needed",
          "type": "uint256"
        }
      ],
      "name": "ERC20InsufficientBalance",
      "type": "error"
    },
    {
      "inputs": [
        {
          "internalType": "address",
          "name": "approver",
          "type": "address"
        }
      ],
      "name": "ERC20InvalidApprover",
      "type": "error"
    },
    {
      "inputs": [
        {
          "internalType": "address",
          "name": "receiver",
          "type": "address"
        }
      ],
      "name": "ERC20InvalidReceiver",
      "type": "error"
    },
    {
      "inputs": [
        {
          "internalType": "address",
          "name": "sender",
          "type": "address"
        }
      ],
      "name": "ERC20InvalidSender",
      "type": "error"
    },
    {
      "inputs": [
        {
          "internalType": "address",
          "name": "spender",
          "type": "address"
        }
      ],
      "name": "ERC20InvalidSpender",
      "type": "error"
    },
    {
      "anonymous": false,
      "inputs": [
        {
          "indexed": true,
          "internalType": "address",
          "name": "owner",
          "type": "address"
        },
        {
          "indexed": true,
          "internalType": "address",
          "name": "spender",
          "type": "address"
        },
        {
          "indexed": false,
          "internalType": "uint256",
          "name": "value",
          "type": "uint256"
        }
      ],
      "name": "Approval",
      "type": "event"
    },
    {
      "anonymous": false,
      "inputs": [
        {
          "indexed": false,
          "internalType": "address",
          "name": "from",
          "type": "address"
        },
        {
          "indexed": false,
          "internalType": "address",
          "name": "to",
          "type": "address"
        },
        {
          "indexed": false,
          "internalType": "uint256",
          "name": "amount",
          "type": "uint256"
        }
      ],
      "name": "Burn",
      "type": "event"
    },
    {
      "anonymous": false,
      "inputs": [
        {
          "indexed": false,
          "internalType": "address",
          "name": "from",
          "type": "address"
        },
        {
          "indexed": false,
          "internalType": "address",
          "name": "to",
          "type": "address"
        },
        {
          "indexed": false,
          "internalType": "uint256",
          "name": "amount",
          "type": "uint256"
        }
      ],
      "name": "Mint",
      "type": "event"
    },
    {
      "anonymous": false,
      "inputs": [
        {
          "indexed": true,
          "internalType": "bytes32",
          "name": "role",
          "type": "bytes32"
        },
        {
          "indexed": true,
          "internalType": "bytes32",
          "name": "previousAdminRole",
          "type": "bytes32"
        },
        {
          "indexed": true,
          "internalType": "bytes32",
          "name": "newAdminRole",
          "type": "bytes32"
        }
      ],
      "name": "RoleAdminChanged",
      "type": "event"
    },
    {
      "anonymous": false,
      "inputs": [
        {
          "indexed": true,
          "internalType": "bytes32",
          "name": "role",
          "type": "bytes32"
        },
        {
          "indexed": true,
          "internalType": "address",
          "name": "account",
          "type": "address"
        },
        {
          "indexed": true,
          "internalType": "address",
          "name": "sender",
          "type": "address"
        }
      ],
      "name": "RoleGranted",
      "type": "event"
    },
    {
      "anonymous": false,
      "inputs": [
        {
          "indexed": true,
          "internalType": "bytes32",
          "name": "role",
          "type": "bytes32"
        },
        {
          "indexed": true,
          "internalType": "address",
          "name": "account",
          "type": "address"
        },
        {
          "indexed": true,
          "internalType": "address",
          "name": "sender",
          "type": "address"
        }
      ],
      "name": "RoleRevoked",
      "type": "event"
    },
    {
      "anonymous": false,
      "inputs": [
        {
          "indexed": true,
          "internalType": "address",
          "name": "from",
          "type": "address"
        },
        {
          "indexed": true,
          "internalType": "address",
          "name": "to",
          "type": "address"
        },
        {
          "indexed": false,
          "internalType": "uint256",
          "name": "value",
          "type": "uint256"
        }
      ],
      "name": "Transfer",
      "type": "event"
    },
    {
      "inputs": [],
      "name": "ADMIN_ROLE",
      "outputs": [
        {
          "internalType": "bytes32",
          "name": "",
          "type": "bytes32"
        }
      ],
      "stateMutability": "view",
      "type": "function"
    },
    {
      "inputs": [],
      "name": "Admin",
      "outputs": [
        {
          "internalType": "address",
          "name": "",
          "type": "address"
        }
      ],
      "stateMutability": "view",
      "type": "function"
    },
    {
      "inputs": [],
      "name": "CONTROLLER_ROLE",
      "outputs": [
        {
          "internalType": "bytes32",
          "name": "",
          "type": "bytes32"
        }
      ],
      "stateMutability": "view",
      "type": "function"
    },
    {
      "inputs": [],
      "name": "DEFAULT_ADMIN_ROLE",
      "outputs": [
        {
          "internalType": "bytes32",
          "name": "",
          "type": "bytes32"
        }
      ],
      "stateMutability": "view",
      "type": "function"
    },
    {
      "inputs": [
        {
          "internalType": "address",
          "name": "owner",
          "type": "address"
        },
        {
          "internalType": "address",
          "name": "spender",
          "type": "address"
        }
      ],
      "name": "allowance",
      "outputs": [
        {
          "internalType": "uint256",
          "name": "",
          "type": "uint256"
        }
      ],
      "stateMutability": "view",
      "type": "function"
    },
    {
      "inputs": [
        {
          "internalType": "address",
          "name": "spender",
          "type": "address"
        },
        {
          "internalType": "uint256",
          "name": "value",
          "type": "uint256"
        }
      ],
      "name": "approve",
      "outputs": [
        {
          "internalType": "bool",
          "name": "",
          "type": "bool"
        }
      ],
      "stateMutability": "nonpayable",
      "type": "function"
    },
    {
      "inputs": [
        {
          "internalType": "address",
          "name": "account",
          "type": "address"
        }
      ],
      "name": "balanceOf",
      "outputs": [
        {
          "internalType": "uint256",
          "name": "",
          "type": "uint256"
        }
      ],
      "stateMutability": "view",
      "type": "function"
    },
    {
      "inputs": [
        {
          "internalType": "uint256",
          "name": "amount",
          "type": "uint256"
        }
      ],
      "name": "burn",
      "outputs": [],
      "stateMutability": "nonpayable",
      "type": "function"
    },
    {
      "inputs": [],
      "name": "decimals",
      "outputs": [
        {
          "internalType": "uint8",
          "name": "",
          "type": "uint8"
        }
      ],
      "stateMutability": "view",
      "type": "function"
    },
    {
      "inputs": [
        {
          "internalType": "bytes32",
          "name": "role",
          "type": "bytes32"
        }
      ],
      "name": "getRoleAdmin",
      "outputs": [
        {
          "internalType": "bytes32",
          "name": "",
          "type": "bytes32"
        }
      ],
      "stateMutability": "view",
      "type": "function"
    },
    {
      "inputs": [
        {
          "internalType": "bytes32",
          "name": "role",
          "type": "bytes32"
        },
        {
          "internalType": "address",
          "name": "account",
          "type": "address"
        }
      ],
      "name": "grantRole",
      "outputs": [],
      "stateMutability": "nonpayable",
      "type": "function"
    },
    {
      "inputs": [
        {
          "internalType": "bytes32",
          "name": "role",
          "type": "bytes32"
        },
        {
          "internalType": "address",
          "name": "account",
          "type": "address"
        }
      ],
      "name": "hasRole",
      "outputs": [
        {
          "internalType": "bool",
          "name": "",
          "type": "bool"
        }
      ],
      "stateMutability": "view",
      "type": "function"
    },
    {
      "inputs": [
        {
          "internalType": "address",
          "name": "reciver",
          "type": "address"
        },
        {
          "internalType": "uint256",
          "name": "amount",
          "type": "uint256"
        }
      ],
      "name": "mint",
      "outputs": [],
      "stateMutability": "nonpayable",
      "type": "function"
    },
    {
      "inputs": [],
      "name": "name",
      "outputs": [
        {
          "internalType": "string",
          "name": "",
          "type": "string"
        }
      ],
      "stateMutability": "view",
      "type": "function"
    },
    {
      "inputs": [
        {
          "internalType": "bytes32",
          "name": "role",
          "type": "bytes32"
        },
        {
          "internalType": "address",
          "name": "callerConfirmation",
          "type": "address"
        }
      ],
      "name": "renounceRole",
      "outputs": [],
      "stateMutability": "nonpayable",
      "type": "function"
    },
    {
      "inputs": [
        {
          "internalType": "bytes32",
          "name": "role",
          "type": "bytes32"
        },
        {
          "internalType": "address",
          "name": "account",
          "type": "address"
        }
      ],
      "name": "revokeRole",
      "outputs": [],
      "stateMutability": "nonpayable",
      "type": "function"
    },
    {
      "inputs": [
        {
          "internalType": "bytes4",
          "name": "interfaceId",
          "type": "bytes4"
        }
      ],
      "name": "supportsInterface",
      "outputs": [
        {
          "internalType": "bool",
          "name": "",
          "type": "bool"
        }
      ],
      "stateMutability": "view",
      "type": "function"
    },
    {
      "inputs": [],
      "name": "symbol",
      "outputs": [
        {
          "internalType": "string",
          "name": "",
          "type": "string"
        }
      ],
      "stateMutability": "view",
      "type": "function"
    },
    {
      "inputs": [],
      "name": "totalSupply",
      "outputs": [
        {
          "internalType": "uint256",
          "name": "",
          "type": "uint256"
        }
      ],
      "stateMutability": "view",
      "type": "function"
    },
    {
      "inputs": [
        {
          "internalType": "address",
          "name": "to",
          "type": "address"
        },
        {
          "internalType": "uint256",
          "name": "value",
          "type": "uint256"
        }
      ],
      "name": "transfer",
      "outputs": [
        {
          "internalType": "bool",
          "name": "",
          "type": "bool"
        }
      ],
      "stateMutability": "nonpayable",
      "type": "function"
    },
    {
      "inputs": [
        {
          "internalType": "address",
          "name": "from",
          "type": "address"
        },
        {
          "internalType": "address",
          "name": "to",
          "type": "address"
        },
        {
          "internalType": "uint256",
          "name": "value",
          "type": "uint256"
        }
      ],
      "name": "transferFrom",
      "outputs": [
        {
          "internalType": "bool",
          "name": "",
          "type": "bool"
        }
      ],
      "stateMutability": "nonpayable",
      "type": "function"
    }
  ],
  "bytecode": "0x608060405234801561001057600080fd5b5060405161109638038061109683398101604081905261002f91610189565b60408051808201825260038082526225272960e91b602080840182905284518086019095528285528401529091906100678382610258565b5060046100748282610258565b5050506100a77fdf8b4c520ffe197c5343c6f5aec59570151ef9a492f2c624fd45ddde6135ec42826100d960201b60201c565b506100b36000826100d9565b50600680546001600160a01b0319166001600160a01b0392909216919091179055610316565b60008281526005602090815260408083206001600160a01b038516845290915281205460ff1661017f5760008381526005602090815260408083206001600160a01b03861684529091529020805460ff191660011790556101373390565b6001600160a01b0316826001600160a01b0316847f2f8788117e7eff1d82e926ec794901d17c78024a50270940304540a733656f0d60405160405180910390a4506001610183565b5060005b92915050565b60006020828403121561019b57600080fd5b81516001600160a01b03811681146101b257600080fd5b9392505050565b634e487b7160e01b600052604160045260246000fd5b600181811c908216806101e357607f821691505b60208210810361020357634e487b7160e01b600052602260045260246000fd5b50919050565b601f82111561025357806000526020600020601f840160051c810160208510156102305750805b601f840160051c820191505b81811015610250576000815560010161023c565b50505b505050565b81516001600160401b03811115610271576102716101b9565b6102858161027f84546101cf565b84610209565b6020601f8211600181146102b957600083156102a15750848201515b600019600385901b1c1916600184901b178455610250565b600084815260208120601f198516915b828110156102e957878501518255602094850194600190920191016102c9565b50848210156103075786840151600019600387901b60f8161c191681555b50505050600190811b01905550565b610d71806103256000396000f3fe608060405234801561001057600080fd5b50600436106101375760003560e01c806340c10f19116100b857806395d89b411161007c57806395d89b41146102bf578063a217fddf146102c7578063a9059cbb146102cf578063d547741f146102e2578063dd62ed3e146102f5578063ff1b636d1461032e57600080fd5b806340c10f191461023657806342966c681461024957806370a082311461025c57806375b238fc1461028557806391d14854146102ac57600080fd5b806323b872dd116100ff57806323b872dd146101c9578063248a9ca3146101dc5780632f2ff15d146101ff578063313ce5671461021457806336568abe1461022357600080fd5b806301ffc9a71461013c57806306fdde0314610164578063092c5b3b14610179578063095ea7b3146101ae57806318160ddd146101c1575b600080fd5b61014f61014a366004610b54565b610359565b60405190151581526020015b60405180910390f35b61016c610390565b60405161015b9190610b85565b6101a07f70546d1c92f8c2132ae23a23f5177aa8526356051c7510df99f50e012d22152981565b60405190815260200161015b565b61014f6101bc366004610bef565b610422565b6002546101a0565b61014f6101d7366004610c19565b61043a565b6101a06101ea366004610c56565b60009081526005602052604090206001015490565b61021261020d366004610c6f565b61045e565b005b6040516012815260200161015b565b610212610231366004610c6f565b610489565b610212610244366004610bef565b6104c1565b610212610257366004610c56565b61058e565b6101a061026a366004610c9b565b6001600160a01b031660009081526020819052604090205490565b6101a07fdf8b4c520ffe197c5343c6f5aec59570151ef9a492f2c624fd45ddde6135ec4281565b61014f6102ba366004610c6f565b61064c565b61016c610677565b6101a0600081565b61014f6102dd366004610bef565b610686565b6102126102f0366004610c6f565b610694565b6101a0610303366004610cb6565b6001600160a01b03918216600090815260016020908152604080832093909416825291909152205490565b600654610341906001600160a01b031681565b6040516001600160a01b03909116815260200161015b565b60006001600160e01b03198216637965db0b60e01b148061038a57506301ffc9a760e01b6001600160e01b03198316145b92915050565b60606003805461039f90610ce0565b80601f01602080910402602001604051908101604052809291908181526020018280546103cb90610ce0565b80156104185780601f106103ed57610100808354040283529160200191610418565b820191906000526020600020905b8154815290600101906020018083116103fb57829003601f168201915b5050505050905090565b6000336104308185856106b9565b5060019392505050565b6000336104488582856106c6565b61045385858561073f565b506001949350505050565b6000828152600560205260409020600101546104798161079e565b61048383836107ab565b50505050565b6001600160a01b03811633146104b25760405163334bd91960e11b815260040160405180910390fd5b6104bc828261083f565b505050565b7f70546d1c92f8c2132ae23a23f5177aa8526356051c7510df99f50e012d2215296104eb8161079e565b600082116105355760405162461bcd60e51b81526020600482015260126024820152714a4e523a20494e56414c49442076616c756560701b60448201526064015b60405180910390fd5b61053f83836108ac565b60408051600081526001600160a01b03851660208201529081018390527fab8530f87dc9b59234c4623bf917212bb2536d647574c8e7e5da92c2ede0c9f89060600160405180910390a1505050565b7f70546d1c92f8c2132ae23a23f5177aa8526356051c7510df99f50e012d2215296105b88161079e565b600082116105fd5760405162461bcd60e51b81526020600482015260126024820152714a4e523a20494e56414c49442076616c756560701b604482015260640161052c565b61060733836108e6565b60408051338152600060208201529081018390527fbac40739b0d4ca32fa2d82fc91630465ba3eddd1598da6fca393b26fb63b94539060600160405180910390a15050565b60009182526005602090815260408084206001600160a01b0393909316845291905290205460ff1690565b60606004805461039f90610ce0565b60003361043081858561073f565b6000828152600560205260409020600101546106af8161079e565b610483838361083f565b6104bc838383600161091c565b6001600160a01b03838116600090815260016020908152604080832093861683529290522054600019811015610483578181101561073057604051637dc7a0d960e11b81526001600160a01b0384166004820152602481018290526044810183905260640161052c565b6104838484848403600061091c565b6001600160a01b03831661076957604051634b637e8f60e11b81526000600482015260240161052c565b6001600160a01b0382166107935760405163ec442f0560e01b81526000600482015260240161052c565b6104bc8383836109f1565b6107a88133610b1b565b50565b60006107b7838361064c565b6108375760008381526005602090815260408083206001600160a01b03861684529091529020805460ff191660011790556107ef3390565b6001600160a01b0316826001600160a01b0316847f2f8788117e7eff1d82e926ec794901d17c78024a50270940304540a733656f0d60405160405180910390a450600161038a565b50600061038a565b600061084b838361064c565b156108375760008381526005602090815260408083206001600160a01b0386168085529252808320805460ff1916905551339286917ff6391f5c32d9c69d2a47ea670b442974b53935d1edc7fd64eb21e047a839171b9190a450600161038a565b6001600160a01b0382166108d65760405163ec442f0560e01b81526000600482015260240161052c565b6108e2600083836109f1565b5050565b6001600160a01b03821661091057604051634b637e8f60e11b81526000600482015260240161052c565b6108e2826000836109f1565b6001600160a01b0384166109465760405163e602df0560e01b81526000600482015260240161052c565b6001600160a01b03831661097057604051634a1406b160e11b81526000600482015260240161052c565b6001600160a01b038085166000908152600160209081526040808320938716835292905220829055801561048357826001600160a01b0316846001600160a01b03167f8c5be1e5ebec7d5bd14f71427d1e84f3dd0314c0f7b2291e5b200ac8c7c3b925846040516109e391815260200190565b60405180910390a350505050565b6001600160a01b038316610a1c578060026000828254610a119190610d1a565b90915550610a8e9050565b6001600160a01b03831660009081526020819052604090205481811015610a6f5760405163391434e360e21b81526001600160a01b0385166004820152602481018290526044810183905260640161052c565b6001600160a01b03841660009081526020819052604090209082900390555b6001600160a01b038216610aaa57600280548290039055610ac9565b6001600160a01b03821660009081526020819052604090208054820190555b816001600160a01b0316836001600160a01b03167fddf252ad1be2c89b69c2b068fc378daa952ba7f163c4a11628f55a4df523b3ef83604051610b0e91815260200190565b60405180910390a3505050565b610b25828261064c565b6108e25760405163e2517d3f60e01b81526001600160a01b03821660048201526024810183905260440161052c565b600060208284031215610b6657600080fd5b81356001600160e01b031981168114610b7e57600080fd5b9392505050565b602081526000825180602084015260005b81811015610bb35760208186018101516040868401015201610b96565b506000604082850101526040601f19601f83011684010191505092915050565b80356001600160a01b0381168114610bea57600080fd5b919050565b60008060408385031215610c0257600080fd5b610c0b83610bd3565b946020939093013593505050565b600080600060608486031215610c2e57600080fd5b610c3784610bd3565b9250610c4560208501610bd3565b929592945050506040919091013590565b600060208284031215610c6857600080fd5b5035919050565b60008060408385031215610c8257600080fd5b82359150610c9260208401610bd3565b90509250929050565b600060208284031215610cad57600080fd5b610b7e82610bd3565b60008060408385031215610cc957600080fd5b610cd283610bd3565b9150610c9260208401610bd3565b600181811c90821680610cf457607f821691505b602082108103610d1457634e487b7160e01b600052602260045260246000fd5b50919050565b8082018082111561038a57634e487b7160e01b600052601160045260246000fdfea26469706673582212204fbd9865eb93920ae2eb6fc7c2c41439572e1203a8ccdad3d00ee7eebea537dc64736f6c634300081d0033",
  "linkReferences": {},
  "deployedLinkReferences": {}
}