{
  "_format": "hh-sol-artifact-1",
  "contractName": "InvoiceNFT",
  "sourceName": "contracts/InvoiceNFT.sol",
  "abi": [
    {
      "inputs": [
        {
          "internalType": "string",
          "name": "name_",
          "type": "string"
        },
        {
          "internalType": "string",
          "name": "symbol_",
          "type": "string"
        }
      ],
      "stateMutability": "nonpayable",
      "type": "constructor"
    },
    {
      "inputs": [],
      "name": "AccessControlBadConfirmation",
      "type": "error"
    },
    {
      "inputs": [
        {
          "internalType": "address",
          "name": "account",
          "type": "address"
        },
        {
          "internalType": "bytes32",
          "name": "neededRole",
          "type": "bytes32"
        }
      ],
      "name": "AccessControlUnauthorizedAccount",
      "type": "error"
    },
    {
      "inputs": [
        {
          "internalType": "address",
          "name": "sender",
          "type": "address"
        },
        {
          "internalType": "uint256",
          "name": "tokenId",
          "type": "uint256"
        },
        {
          "internalType": "address",
          "name": "owner",
          "type": "address"
        }
      ],
      "name": "ERC721IncorrectOwner",
      "type": "error"
    },
    {
      "inputs": [
        {
          "internalType": "address",
          "name": "operator",
          "type": "address"
        },
        {
          "internalType": "uint256",
          "name": "tokenId",
          "type": "uint256"
        }
      ],
      "name": "ERC721InsufficientApproval",
      "type": "error"
    },
    {
      "inputs": [
        {
          "internalType": "address",
          "name": "approver",
          "type": "address"
        }
      ],
      "name": "ERC721InvalidApprover",
      "type": "error"
    },
    {
      "inputs": [
        {
          "internalType": "address",
          "name": "operator",
          "type": "address"
        }
      ],
      "name": "ERC721InvalidOperator",
      "type": "error"
    },
    {
      "inputs": [
        {
          "internalType": "address",
          "name": "owner",
          "type": "address"
        }
      ],
      "name": "ERC721InvalidOwner",
      "type": "error"
    },
    {
      "inputs": [
        {
          "internalType": "address",
          "name": "receiver",
          "type": "address"
        }
      ],
      "name": "ERC721InvalidReceiver",
      "type": "error"
    },
    {
      "inputs": [
        {
          "internalType": "address",
          "name": "sender",
          "type": "address"
        }
      ],
      "name": "ERC721InvalidSender",
      "type": "error"
    },
    {
      "inputs": [
        {
          "internalType": "uint256",
          "name": "tokenId",
          "type": "uint256"
        }
      ],
      "name": "ERC721NonexistentToken",
      "type": "error"
    },
    {
      "anonymous": false,
      "inputs": [
        {
          "indexed": true,
          "internalType": "address",
          "name": "owner",
          "type": "address"
        },
        {
          "indexed": true,
          "internalType": "address",
          "name": "approved",
          "type": "address"
        },
        {
          "indexed": true,
          "internalType": "uint256",
          "name": "tokenId",
          "type": "uint256"
        }
      ],
      "name": "Approval",
      "type": "event"
    },
    {
      "anonymous": false,
      "inputs": [
        {
          "indexed": true,
          "internalType": "address",
          "name": "owner",
          "type": "address"
        },
        {
          "indexed": true,
          "internalType": "address",
          "name": "operator",
          "type": "address"
        },
        {
          "indexed": false,
          "internalType": "bool",
          "name": "approved",
          "type": "bool"
        }
      ],
      "name": "ApprovalForAll",
      "type": "event"
    },
    {
      "anonymous": false,
      "inputs": [
        {
          "indexed": true,
          "internalType": "uint256",
          "name": "id",
          "type": "uint256"
        },
        {
          "indexed": true,
          "internalType": "address",
          "name": "owner",
          "type": "address"
        },
        {
          "indexed": false,
          "internalType": "uint256",
          "name": "faceValue",
          "type": "uint256"
        },
        {
          "indexed": false,
          "internalType": "uint256",
          "name": "dueDate",
          "type": "uint256"
        },
        {
          "indexed": false,
          "internalType": "bytes32",
          "name": "debtorHash",
          "type": "bytes32"
        }
      ],
      "name": "InvoiceMinted",
      "type": "event"
    },
    {
      "anonymous": false,
      "inputs": [
        {
          "indexed": true,
          "internalType": "bytes32",
          "name": "role",
          "type": "bytes32"
        },
        {
          "indexed": true,
          "internalType": "bytes32",
          "name": "previousAdminRole",
          "type": "bytes32"
        },
        {
          "indexed": true,
          "internalType": "bytes32",
          "name": "newAdminRole",
          "type": "bytes32"
        }
      ],
      "name": "RoleAdminChanged",
      "type": "event"
    },
    {
      "anonymous": false,
      "inputs": [
        {
          "indexed": true,
          "internalType": "bytes32",
          "name": "role",
          "type": "bytes32"
        },
        {
          "indexed": true,
          "internalType": "address",
          "name": "account",
          "type": "address"
        },
        {
          "indexed": true,
          "internalType": "address",
          "name": "sender",
          "type": "address"
        }
      ],
      "name": "RoleGranted",
      "type": "event"
    },
    {
      "anonymous": false,
      "inputs": [
        {
          "indexed": true,
          "internalType": "bytes32",
          "name": "role",
          "type": "bytes32"
        },
        {
          "indexed": true,
          "internalType": "address",
          "name": "account",
          "type": "address"
        },
        {
          "indexed": true,
          "internalType": "address",
          "name": "sender",
          "type": "address"
        }
      ],
      "name": "RoleRevoked",
      "type": "event"
    },
    {
      "anonymous": false,
      "inputs": [
        {
          "indexed": true,
          "internalType": "address",
          "name": "from",
          "type": "address"
        },
        {
          "indexed": true,
          "internalType": "address",
          "name": "to",
          "type": "address"
        },
        {
          "indexed": true,
          "internalType": "uint256",
          "name": "tokenId",
          "type": "uint256"
        }
      ],
      "name": "Transfer",
      "type": "event"
    },
    {
      "inputs": [],
      "name": "ADMIN_ROLE",
      "outputs": [
        {
          "internalType": "bytes32",
          "name": "",
          "type": "bytes32"
        }
      ],
      "stateMutability": "view",
      "type": "function"
    },
    {
      "inputs": [],
      "name": "CONTROLLER_ROLE",
      "outputs": [
        {
          "internalType": "bytes32",
          "name": "",
          "type": "bytes32"
        }
      ],
      "stateMutability": "view",
      "type": "function"
    },
    {
      "inputs": [],
      "name": "DEFAULT_ADMIN_ROLE",
      "outputs": [
        {
          "internalType": "bytes32",
          "name": "",
          "type": "bytes32"
        }
      ],
      "stateMutability": "view",
      "type": "function"
    },
    {
      "inputs": [
        {
          "internalType": "address",
          "name": "to",
          "type": "address"
        },
        {
          "internalType": "uint256",
          "name": "tokenId",
          "type": "uint256"
        }
      ],
      "name": "approve",
      "outputs": [],
      "stateMutability": "nonpayable",
      "type": "function"
    },
    {
      "inputs": [
        {
          "internalType": "address",
          "name": "owner",
          "type": "address"
        }
      ],
      "name": "balanceOf",
      "outputs": [
        {
          "internalType": "uint256",
          "name": "",
          "type": "uint256"
        }
      ],
      "stateMutability": "view",
      "type": "function"
    },
    {
      "inputs": [
        {
          "internalType": "uint256",
          "name": "tokenId",
          "type": "uint256"
        }
      ],
      "name": "getApproved",
      "outputs": [
        {
          "internalType": "address",
          "name": "",
          "type": "address"
        }
      ],
      "stateMutability": "view",
      "type": "function"
    },
    {
      "inputs": [
        {
          "internalType": "uint256",
          "name": "id",
          "type": "uint256"
        }
      ],
      "name": "getInvoice",
      "outputs": [
        {
          "components": [
            {
              "internalType": "uint256",
              "name": "faceValue",
              "type": "uint256"
            },
            {
              "internalType": "uint256",
              "name": "dueDate",
              "type": "uint256"
            },
            {
              "internalType": "bytes32",
              "name": "debtorHash",
              "type": "bytes32"
            }
          ],
          "internalType": "struct InvoiceNFT.InvoiceData",
          "name": "",
          "type": "tuple"
        }
      ],
      "stateMutability": "view",
      "type": "function"
    },
    {
      "inputs": [
        {
          "internalType": "bytes32",
          "name": "role",
          "type": "bytes32"
        }
      ],
      "name": "getRoleAdmin",
      "outputs": [
        {
          "internalType": "bytes32",
          "name": "",
          "type": "bytes32"
        }
      ],
      "stateMutability": "view",
      "type": "function"
    },
    {
      "inputs": [
        {
          "internalType": "bytes32",
          "name": "role",
          "type": "bytes32"
        },
        {
          "internalType": "address",
          "name": "account",
          "type": "address"
        }
      ],
      "name": "grantRole",
      "outputs": [],
      "stateMutability": "nonpayable",
      "type": "function"
    },
    {
      "inputs": [
        {
          "internalType": "bytes32",
          "name": "role",
          "type": "bytes32"
        },
        {
          "internalType": "address",
          "name": "account",
          "type": "address"
        }
      ],
      "name": "hasRole",
      "outputs": [
        {
          "internalType": "bool",
          "name": "",
          "type": "bool"
        }
      ],
      "stateMutability": "view",
      "type": "function"
    },
    {
      "inputs": [
        {
          "internalType": "uint256",
          "name": "",
          "type": "uint256"
        }
      ],
      "name": "invoices",
      "outputs": [
        {
          "internalType": "uint256",
          "name": "faceValue",
          "type": "uint256"
        },
        {
          "internalType": "uint256",
          "name": "dueDate",
          "type": "uint256"
        },
        {
          "internalType": "bytes32",
          "name": "debtorHash",
          "type": "bytes32"
        }
      ],
      "stateMutability": "view",
      "type": "function"
    },
    {
      "inputs": [
        {
          "internalType": "address",
          "name": "owner",
          "type": "address"
        },
        {
          "internalType": "address",
          "name": "operator",
          "type": "address"
        }
      ],
      "name": "isApprovedForAll",
      "outputs": [
        {
          "internalType": "bool",
          "name": "",
          "type": "bool"
        }
      ],
      "stateMutability": "view",
      "type": "function"
    },
    {
      "inputs": [
        {
          "internalType": "address",
          "name": "to",
          "type": "address"
        },
        {
          "internalType": "uint256",
          "name": "faceValue",
          "type": "uint256"
        },
        {
          "internalType": "uint256",
          "name": "dueDate",
          "type": "uint256"
        },
        {
          "internalType": "bytes32",
          "name": "debtorHash",
          "type": "bytes32"
        }
      ],
      "name": "mintInvoice",
      "outputs": [
        {
          "internalType": "uint256",
          "name": "",
          "type": "uint256"
        }
      ],
      "stateMutability": "nonpayable",
      "type": "function"
    },
    {
      "inputs": [],
      "name": "name",
      "outputs": [
        {
          "internalType": "string",
          "name": "",
          "type": "string"
        }
      ],
      "stateMutability": "view",
      "type": "function"
    },
    {
      "inputs": [
        {
          "internalType": "uint256",
          "name": "tokenId",
          "type": "uint256"
        }
      ],
      "name": "ownerOf",
      "outputs": [
        {
          "internalType": "address",
          "name": "",
          "type": "address"
        }
      ],
      "stateMutability": "view",
      "type": "function"
    },
    {
      "inputs": [
        {
          "internalType": "bytes32",
          "name": "role",
          "type": "bytes32"
        },
        {
          "internalType": "address",
          "name": "callerConfirmation",
          "type": "address"
        }
      ],
      "name": "renounceRole",
      "outputs": [],
      "stateMutability": "nonpayable",
      "type": "function"
    },
    {
      "inputs": [
        {
          "internalType": "bytes32",
          "name": "role",
          "type": "bytes32"
        },
        {
          "internalType": "address",
          "name": "account",
          "type": "address"
        }
      ],
      "name": "revokeRole",
      "outputs": [],
      "stateMutability": "nonpayable",
      "type": "function"
    },
    {
      "inputs": [
        {
          "internalType": "address",
          "name": "from",
          "type": "address"
        },
        {
          "internalType": "address",
          "name": "to",
          "type": "address"
        },
        {
          "internalType": "uint256",
          "name": "tokenId",
          "type": "uint256"
        }
      ],
      "name": "safeTransferFrom",
      "outputs": [],
      "stateMutability": "nonpayable",
      "type": "function"
    },
    {
      "inputs": [
        {
          "internalType": "address",
          "name": "from",
          "type": "address"
        },
        {
          "internalType": "address",
          "name": "to",
          "type": "address"
        },
        {
          "internalType": "uint256",
          "name": "tokenId",
          "type": "uint256"
        },
        {
          "internalType": "bytes",
          "name": "data",
          "type": "bytes"
        }
      ],
      "name": "safeTransferFrom",
      "outputs": [],
      "stateMutability": "nonpayable",
      "type": "function"
    },
    {
      "inputs": [
        {
          "internalType": "address",
          "name": "operator",
          "type": "address"
        },
        {
          "internalType": "bool",
          "name": "approved",
          "type": "bool"
        }
      ],
      "name": "setApprovalForAll",
      "outputs": [],
      "stateMutability": "nonpayable",
      "type": "function"
    },
    {
      "inputs": [
        {
          "internalType": "bytes4",
          "name": "interfaceId",
          "type": "bytes4"
        }
      ],
      "name": "supportsInterface",
      "outputs": [
        {
          "internalType": "bool",
          "name": "",
          "type": "bool"
        }
      ],
      "stateMutability": "view",
      "type": "function"
    },
    {
      "inputs": [],
      "name": "symbol",
      "outputs": [
        {
          "internalType": "string",
          "name": "",
          "type": "string"
        }
      ],
      "stateMutability": "view",
      "type": "function"
    },
    {
      "inputs": [
        {
          "internalType": "uint256",
          "name": "tokenId",
          "type": "uint256"
        }
      ],
      "name": "tokenURI",
      "outputs": [
        {
          "internalType": "string",
          "name": "",
          "type": "string"
        }
      ],
      "stateMutability": "view",
      "type": "function"
    },
    {
      "inputs": [
        {
          "internalType": "address",
          "name": "from",
          "type": "address"
        },
        {
          "internalType": "address",
          "name": "to",
          "type": "address"
        },
        {
          "internalType": "uint256",
          "name": "tokenId",
          "type": "uint256"
        }
      ],
      "name": "transferFrom",
      "outputs": [],
      "stateMutability": "nonpayable",
      "type": "function"
    }
  ],
  "bytecode": "0x608060405234801561001057600080fd5b5060405161195b38038061195b83398101604081905261002f916101fa565b8181600061003d83826102ec565b50600161004a82826102ec565b50505061007d7fdf8b4c520ffe197c5343c6f5aec59570151ef9a492f2c624fd45ddde6135ec423361009160201b60201c565b50610089600033610091565b5050506103aa565b60008281526006602090815260408083206001600160a01b038516845290915281205460ff166101375760008381526006602090815260408083206001600160a01b03861684529091529020805460ff191660011790556100ef3390565b6001600160a01b0316826001600160a01b0316847f2f8788117e7eff1d82e926ec794901d17c78024a50270940304540a733656f0d60405160405180910390a450600161013b565b5060005b92915050565b634e487b7160e01b600052604160045260246000fd5b600082601f83011261016857600080fd5b81516001600160401b0381111561018157610181610141565b604051601f8201601f19908116603f011681016001600160401b03811182821017156101af576101af610141565b6040528181528382016020018510156101c757600080fd5b60005b828110156101e6576020818601810151838301820152016101ca565b506000918101602001919091529392505050565b6000806040838503121561020d57600080fd5b82516001600160401b0381111561022357600080fd5b61022f85828601610157565b602085015190935090506001600160401b0381111561024d57600080fd5b61025985828601610157565b9150509250929050565b600181811c9082168061027757607f821691505b60208210810361029757634e487b7160e01b600052602260045260246000fd5b50919050565b601f8211156102e757806000526020600020601f840160051c810160208510156102c45750805b601f840160051c820191505b818110156102e457600081556001016102d0565b50505b505050565b81516001600160401b0381111561030557610305610141565b610319816103138454610263565b8461029d565b6020601f82116001811461034d57600083156103355750848201515b600019600385901b1c1916600184901b1784556102e4565b600084815260208120601f198516915b8281101561037d578785015182556020948501946001909201910161035d565b508482101561039b5786840151600019600387901b60f8161c191681555b50505050600190811b01905550565b6115a2806103b96000396000f3fe608060405234801561001057600080fd5b50600436106101585760003560e01c80634e6d1405116100c3578063a217fddf1161007c578063a217fddf146103be578063a22cb465146103c6578063b88d4fde146103d9578063c87b56dd146103ec578063d547741f146103ff578063e985e9c51461041257600080fd5b80634e6d14051461030c5780636352211e1461035657806370a082311461036957806375b238fc1461037c57806391d14854146103a357806395d89b41146103b657600080fd5b8063248a9ca311610115578063248a9ca3146102225780632f2ff15d14610245578063314bc2de1461025857806336568abe1461026b5780633a23cc0a1461027e57806342842e0e146102f957600080fd5b806301ffc9a71461015d57806306fdde0314610185578063081812fc1461019a578063092c5b3b146101c5578063095ea7b3146101fa57806323b872dd1461020f575b600080fd5b61017061016b366004611186565b610425565b60405190151581526020015b60405180910390f35b61018d610436565b60405161017c91906111f3565b6101ad6101a8366004611206565b6104c8565b6040516001600160a01b03909116815260200161017c565b6101ec7f70546d1c92f8c2132ae23a23f5177aa8526356051c7510df99f50e012d22152981565b60405190815260200161017c565b61020d61020836600461123b565b6104f1565b005b61020d61021d366004611265565b610500565b6101ec610230366004611206565b60009081526006602052604090206001015490565b61020d6102533660046112a2565b610590565b6101ec6102663660046112ce565b6105b5565b61020d6102793660046112a2565b61070e565b6102d761028c366004611206565b60408051606080820183526000808352602080840182905292840181905293845260088252928290208251938401835280548452600181015491840191909152600201549082015290565b604080518251815260208084015190820152918101519082015260600161017c565b61020d610307366004611265565b610746565b61033b61031a366004611206565b60086020526000908152604090208054600182015460029092015490919083565b6040805193845260208401929092529082015260600161017c565b6101ad610364366004611206565b610761565b6101ec610377366004611307565b61076c565b6101ec7fdf8b4c520ffe197c5343c6f5aec59570151ef9a492f2c624fd45ddde6135ec4281565b6101706103b13660046112a2565b6107b4565b61018d6107df565b6101ec600081565b61020d6103d4366004611322565b6107ee565b61020d6103e7366004611374565b6107f9565b61018d6103fa366004611206565b610811565b61020d61040d3660046112a2565b610886565b610170610420366004611458565b6108ab565b6000610430826108d9565b92915050565b60606000805461044590611482565b80601f016020809104026020016040519081016040528092919081815260200182805461047190611482565b80156104be5780601f10610493576101008083540402835291602001916104be565b820191906000526020600020905b8154815290600101906020018083116104a157829003601f168201915b5050505050905090565b60006104d3826108fe565b506000828152600460205260409020546001600160a01b0316610430565b6104fc828233610937565b5050565b6001600160a01b03821661052f57604051633250574960e11b8152600060048201526024015b60405180910390fd5b600061053c838333610944565b9050836001600160a01b0316816001600160a01b03161461058a576040516364283d7b60e01b81526001600160a01b0380861660048301526024820184905282166044820152606401610526565b50505050565b6000828152600660205260409020600101546105ab81610a3d565b61058a8383610a4a565b60007f70546d1c92f8c2132ae23a23f5177aa8526356051c7510df99f50e012d2215296105e181610a3d565b6000851161061f5760405162461bcd60e51b815260206004820152600b60248201526a06661636556616c75653e360ac1b6044820152606401610526565b42841161065c5760405162461bcd60e51b815260206004820152600b60248201526a647565446174653e6e6f7760a81b6044820152606401610526565b600060076000815461066d906114bc565b9182905550905061067e8782610ade565b6040805160608082018352888252602080830189815283850189815260008781526008845286902094518555905160018501555160029093019290925582518981529182018890529181018690526001600160a01b0389169183917f7c4cd35c1e2267104985a8cd1ff9f90d57fefe39a6fffc6c5887f3f19dd20659910160405180910390a39695505050505050565b6001600160a01b03811633146107375760405163334bd91960e11b815260040160405180910390fd5b6107418282610af8565b505050565b610741838383604051806020016040528060008152506107f9565b6000610430826108fe565b60006001600160a01b038216610798576040516322718ad960e21b815260006004820152602401610526565b506001600160a01b031660009081526003602052604090205490565b60009182526006602090815260408084206001600160a01b0393909316845291905290205460ff1690565b60606001805461044590611482565b6104fc338383610b65565b610804848484610500565b61058a3385858585610c04565b606061081c826108fe565b50600061083460408051602081019091526000815290565b90506000815111610854576040518060200160405280600081525061087f565b8061085e84610d2f565b60405160200161086f9291906114e3565b6040516020818303038152906040525b9392505050565b6000828152600660205260409020600101546108a181610a3d565b61058a8383610af8565b6001600160a01b03918216600090815260056020908152604080832093909416825291909152205460ff1690565b60006001600160e01b03198216637965db0b60e01b1480610430575061043082610dc2565b6000818152600260205260408120546001600160a01b03168061043057604051637e27328960e01b815260048101849052602401610526565b6107418383836001610e12565b6000828152600260205260408120546001600160a01b039081169083161561097157610971818486610f18565b6001600160a01b038116156109af5761098e600085600080610e12565b6001600160a01b038116600090815260036020526040902080546000190190555b6001600160a01b038516156109de576001600160a01b0385166000908152600360205260409020805460010190555b60008481526002602052604080822080546001600160a01b0319166001600160a01b0389811691821790925591518793918516917fddf252ad1be2c89b69c2b068fc378daa952ba7f163c4a11628f55a4df523b3ef91a4949350505050565b610a478133610f7c565b50565b6000610a5683836107b4565b610ad65760008381526006602090815260408083206001600160a01b03861684529091529020805460ff19166001179055610a8e3390565b6001600160a01b0316826001600160a01b0316847f2f8788117e7eff1d82e926ec794901d17c78024a50270940304540a733656f0d60405160405180910390a4506001610430565b506000610430565b6104fc828260405180602001604052806000815250610fb5565b6000610b0483836107b4565b15610ad65760008381526006602090815260408083206001600160a01b0386168085529252808320805460ff1916905551339286917ff6391f5c32d9c69d2a47ea670b442974b53935d1edc7fd64eb21e047a839171b9190a4506001610430565b6001600160a01b038216610b9757604051630b61174360e31b81526001600160a01b0383166004820152602401610526565b6001600160a01b03838116600081815260056020908152604080832094871680845294825291829020805460ff191686151590811790915591519182527f17307eab39ab6107e8899845ad3d59bd9653f200f220920489ca2b5937696c31910160405180910390a3505050565b6001600160a01b0383163b15610d2857604051630a85bd0160e11b81526001600160a01b0384169063150b7a0290610c46908890889087908790600401611512565b6020604051808303816000875af1925050508015610c81575060408051601f3d908101601f19168201909252610c7e9181019061154f565b60015b610cea573d808015610caf576040519150601f19603f3d011682016040523d82523d6000602084013e610cb4565b606091505b508051600003610ce257604051633250574960e11b81526001600160a01b0385166004820152602401610526565b805160208201fd5b6001600160e01b03198116630a85bd0160e11b14610d2657604051633250574960e11b81526001600160a01b0385166004820152602401610526565b505b5050505050565b60606000610d3c83610fcd565b600101905060008167ffffffffffffffff811115610d5c57610d5c61135e565b6040519080825280601f01601f191660200182016040528015610d86576020820181803683370190505b5090508181016020015b600019016f181899199a1a9b1b9c1cb0b131b232b360811b600a86061a8153600a8504945084610d9057509392505050565b60006001600160e01b031982166380ac58cd60e01b1480610df357506001600160e01b03198216635b5e139f60e01b145b8061043057506301ffc9a760e01b6001600160e01b0319831614610430565b8080610e2657506001600160a01b03821615155b15610ee8576000610e36846108fe565b90506001600160a01b03831615801590610e625750826001600160a01b0316816001600160a01b031614155b8015610e755750610e7381846108ab565b155b15610e9e5760405163a9fbf51f60e01b81526001600160a01b0384166004820152602401610526565b8115610ee65783856001600160a01b0316826001600160a01b03167f8c5be1e5ebec7d5bd14f71427d1e84f3dd0314c0f7b2291e5b200ac8c7c3b92560405160405180910390a45b505b5050600090815260046020526040902080546001600160a01b0319166001600160a01b0392909216919091179055565b610f238383836110a5565b610741576001600160a01b038316610f5157604051637e27328960e01b815260048101829052602401610526565b60405163177e802f60e01b81526001600160a01b038316600482015260248101829052604401610526565b610f8682826107b4565b6104fc5760405163e2517d3f60e01b81526001600160a01b038216600482015260248101839052604401610526565b610fbf838361110b565b610741336000858585610c04565b60008072184f03e93ff9f4daa797ed6e38ed64bf6a1f0160401b831061100c5772184f03e93ff9f4daa797ed6e38ed64bf6a1f0160401b830492506040015b6d04ee2d6d415b85acef81000000008310611038576d04ee2d6d415b85acef8100000000830492506020015b662386f26fc10000831061105657662386f26fc10000830492506010015b6305f5e100831061106e576305f5e100830492506008015b612710831061108257612710830492506004015b60648310611094576064830492506002015b600a83106104305760010192915050565b60006001600160a01b038316158015906111035750826001600160a01b0316846001600160a01b031614806110df57506110df84846108ab565b8061110357506000828152600460205260409020546001600160a01b038481169116145b949350505050565b6001600160a01b03821661113557604051633250574960e11b815260006004820152602401610526565b600061114383836000610944565b90506001600160a01b03811615610741576040516339e3563760e11b815260006004820152602401610526565b6001600160e01b031981168114610a4757600080fd5b60006020828403121561119857600080fd5b813561087f81611170565b60005b838110156111be5781810151838201526020016111a6565b50506000910152565b600081518084526111df8160208601602086016111a3565b601f01601f19169290920160200192915050565b60208152600061087f60208301846111c7565b60006020828403121561121857600080fd5b5035919050565b80356001600160a01b038116811461123657600080fd5b919050565b6000806040838503121561124e57600080fd5b6112578361121f565b946020939093013593505050565b60008060006060848603121561127a57600080fd5b6112838461121f565b92506112916020850161121f565b929592945050506040919091013590565b600080604083850312156112b557600080fd5b823591506112c56020840161121f565b90509250929050565b600080600080608085870312156112e457600080fd5b6112ed8561121f565b966020860135965060408601359560600135945092505050565b60006020828403121561131957600080fd5b61087f8261121f565b6000806040838503121561133557600080fd5b61133e8361121f565b91506020830135801515811461135357600080fd5b809150509250929050565b634e487b7160e01b600052604160045260246000fd5b6000806000806080858703121561138a57600080fd5b6113938561121f565b93506113a16020860161121f565b925060408501359150606085013567ffffffffffffffff8111156113c457600080fd5b8501601f810187136113d557600080fd5b803567ffffffffffffffff8111156113ef576113ef61135e565b604051601f8201601f19908116603f0116810167ffffffffffffffff8111828210171561141e5761141e61135e565b60405281815282820160200189101561143657600080fd5b8160208401602083013760006020838301015280935050505092959194509250565b6000806040838503121561146b57600080fd5b6114748361121f565b91506112c56020840161121f565b600181811c9082168061149657607f821691505b6020821081036114b657634e487b7160e01b600052602260045260246000fd5b50919050565b6000600182016114dc57634e487b7160e01b600052601160045260246000fd5b5060010190565b600083516114f58184602088016111a3565b8351908301906115098183602088016111a3565b01949350505050565b6001600160a01b0385811682528416602082015260408101839052608060608201819052600090611545908301846111c7565b9695505050505050565b60006020828403121561156157600080fd5b815161087f8161117056fea264697066735822122042f542e2bb3395d39e070d3a7b6c8310cfc38fa2625d65d96af89eed0b65cb7a64736f6c634300081d0033",
  "linkReferences": {},
  "deployedLinkReferences": {}
}